S01D0000454345543237305F46696E616C5F50726F6A6563742E73726563CE
S11300000C9434000C9431020C9439020C94510079
S11300100C9451000C9451000C9451000C94510018
S11300200C9451000C9451000C9451000C94510008
S11300300C9451000C9451000C9451000C945100F8
S11300400C9451000C9451000C9451000C945100E8
S11300500C9451000C9451000C9451000C945100D8
S11300600C9451000C94510011241FBECFEFD8E022
S1130070DEBFCDBF11E0A0E0B1E0EEE5F7E002C0E5
S113008005900D92A230B107D9F721E0A2E0B1E0CA
S113009001C01D92AC30B207E1F70E94F2010C944A
S11300A0AD030C94000080917C00807E80937C00E2
S11300B080917A00806480937A0080917A0084FF32
S11300C0FCCF8091790090917A00906190937A00AE
S11300D00895909101016623F9F09923E9F090E0E5
S11300E08230F1F08330C9F0813031F4292F30E0CF
S11300F030938B0020938A009F5F2FEF33EC49E00D
S1130100215030404040E1F700C00000209101013F
S1130110961710F42111E4CF08959093B300ECCF17
S1130120292F30E03093890020938800E5CF909107
S11301300101662311F1992301F190E0262F30E0AB
S1130140823009F18330D1F0813039F4A901491B9F
S1130150510950938B0040938A009F5F4FEF53ECFB
S113016079E0415050407040E1F700C000004091F8
S11301700101961710F44111E3CF0895462F491B4E
S11301804093B300EACFA901491B51095093890058
S113019040938800E2CFCF93DF938AB180668AB917
S11301A08BB18F798BB95E9A8FE891E00197F1F763
S11301B000C000005D9A87EC90E00197F1F700C061
S11301C000005D9887EC90E00197F1F700C0000013
S11301D05E985D9A87EC90E00197F1F700C000000B
S11301E0C2E0D1E05D9890EA9A95F1F70E9453003D
S11301F089935D9A87EC90E00197F1F700C00000C5
S113020091E0C930D90771F7DF91CF9108953F92FA
S11302104F925F926F927F928F929F92AF92BF9212
S1130220CF92DF92EF92FF920F931F93CF93DF93BE
S11302300E94CB00809102012091030130E0280F3D
S1130240311D3595279520930A0140910401809131
S1130250050190E0840F911D40910601840F911DCA
S113026063E070E00E948503EB0160930B018091D1
S113027007010091080110E0080F111D159507955D
S1130280302E00930901B901882777FD8095982FB6
S11302900E946E022B013C01BE01882777FD8095E8
S11302A0982F0E946E024B015C01B801882777FDEC
S11302B08095982F0E946E026B017C0120E030E053
S11302C04AE253E4C301B2010E94D20287FF40C054
S11302D020E030E040EC5FE3C301B2010E94D602AB
S11302E00E944002062F10E020E030E04FE753E484
S11302F0C501B4010E94D20287FD02C0CFEFD0E055
S113030020E030E044E553E4C701B6010E94D20284
S113031087FD02C033243A94109389000093880027
S1130320D0938B00C0938A003092B300DF91CF91B9
S11303301F910F91FF90EF90DF90CF90BF90AF90FF
S11303409F908F907F906F905F904F903F90089513
S11303500FEF10E0C9CF9FE394B98AB18AB98BB18A
S11303608C618BB9E9E6F0E080818A6080838DB38B
S113037083608DBB17B898B90895109289001092C4
S113038088001092B30088E790E090938B008093EC
S11303908A0068E782E00E94690068E781E00E94C1
S11303A0970068E783E00E94690068E781E00E94A3
S11303B0690068E782E00E94970068E781E00E9494
S11303C0970068E783E00E94970068E781E00E9455
S11303D0690068E782E00E94690068E782E00E94A1
S11303E09700D7CF84B78093000114BEECE7F0E008
S11303F080E4808380818083808180628083EAE7D7
S1130400F0E084E08083808180688083E0E8F0E02D
S11304108081816A8083E1E8F0E080818460808368
S1130420EFE6F0E0808186608083E0EBF0E080819D
S1130430816A8083E1EBF0E0808186608083E0E77D
S1130440F0E08081826080830E94AB018CB3836082
S11304508CBBE0E6F0E080818074808378940E9415
S1130460BD011F920F920FB60F9211240E94070133
S1130470FDCF1F920F920FB60F9211240E94BD015F
S113048070D088F09F5790F0B92F9927B751A0F0FA
S1130490D1F0660F771F881F991F1AF0BA95C9F714
S11304A012C0B13081F077D0B1E0089574C0672FE5
S11304B0782F8827B85F39F0B93FCCF386957795C4
S11304C06795B395D9F73EF49095809570956195AD
S11304D07F4F8F4F9F4F0895E89409C097FB3EF4D8
S11304E090958095709561957F4F8F4F9F4F99237D
S11304F0A9F0F92F96E9BB279395F69587957795FB
S11305006795B795F111F8CFFAF4BB0F11F460FFBA
S11305101BC06F5F7F4F8F4F9F4F16C0882311F012
S113052096E911C0772321F09EE8872F762F05C026
S1130530662371F096E8862F70E060E02AF09A95C1
S1130540660F771F881FDAF7880F9695879597F9B6
S1130550089557FD9058440F551F59F05F3F71F0AF
S11305604795880F97FB991F61F09F3F79F0879516
S11305700895121613061406551FF2CF4695F1DF9F
S113058008C0161617061806991FF1CF869571052F
S1130590610508940895E894BB2766277727CB0163
S11305A097F9089566D008F48FEF08950BD09CC096
S11305B08DD028F092D018F0952309F07EC083C026
S11305C01124EACFC6DFA0F3959FD1F3950F50E035
S11305D0551F629FF001729FBB27F00DB11D639FF1
S11305E0AA27F00DB11DAA1F649F6627B00DA11D97
S11305F0661F829F2227B00DA11D621F739FB00D3D
S1130600A11D621F839FA00D611D221F749F3327AC
S1130610A00D611D231F849F600D211D822F762F45
S11306206A2F11249F5750408AF0E1F088234AF042
S1130630EE0FFF1FBB1F661F771F881F915050408E
S1130640A9F79E3F510570F038C0A6CF5F3FECF389
S1130650983EDCF3869577956795B795F795E7957A
S11306609F5FC1F7FE2B880F911D9695879597F98B
S11306700895990F0008550FAA0BE0E8FEEF16162F
S11306801706E807F907C0F012161306E407F50782
S113069098F0621B730B840B950B39F40A2661F0F6
S11306A0232B242B252B21F408950A2609F4A14099
S11306B0A6958FEF811D811D089597F99F6780E8A6
S11306C070E060E008959FEF80EC089500240A94A0
S11306D01616170618060906089500240A94121619
S11306E01306140605060895092E0394000C11F44C
S11306F0882352F0BB0F40F4BF2B11F460FF04C0F9
S11307006F5F7F4F8F4F9F4F089597FB072E16F40F
S1130710009407D077FD09D00E94990307FC05D007
S11307203EF4909581959F4F0895709561957F4F04
S11307300895AA1BBB1B51E107C0AA1FBB1FA61724
S1130740B70710F0A61BB70B881F991F5A95A9F776
S111075080959095BC01CD010895F894FFCFDB
S105075EFFFF97
S9030000FC
