S0110000417564696F324C65642E73726563DA
S11300000C9434000C94E3000C94ED000C94460022
S11300100C9446000C9446000C9446000C94460044
S11300200C9446000C9446000C9446000C94460034
S11300300C9446000C9446000C9446000C94460024
S11300400C9446000C9446000C9446000C94460014
S11300500C9446000C9446000C9446000C94460004
S11300600C9446000C94460011241FBECFEFD8E038
S1130070DEBFCDBF21E0A0E0B1E001C01D92A131FF
S1130080B207E1F70E94FE000C945A010C940000A0
S1130090ECE7F0E0808180648083EEE7F0E080812B
S11300A081608083EAE7F0E08081806880838081DA
S11300B080648083808186FDFDCF0895CF93DF9394
S11300C000D0CDB7DEB71A821982EAE7F0E080816A
S11300D080648083808186FDFDCF8091780090E0EC
S11300E09A8389838091790090E0982F88279A8356
S11300F0898389819A810F900F90DF91CF91089520
S11301000F931F93CF93DF935D985E985E9AEFE809
S1130110F1E03197F1F700C000005D9AE7ECF0E000
S11301203197F1F700C000005D98E7ECF0E03197FB
S1130130F1F700C000005E985D9AE7ECF0E03197BB
S1130140F1F700C00000EC018C01025F1F4F5D98C5
S1130150F0EAFA95F1F70E945E00899399935D9A0B
S113016087EC90E00197F1F700C00000C017D107B9
S113017071F7DF91CF911F910F9108958AB1806635
S11301808AB908958FE384B9E0E8F0E08081816A58
S11301908083E1E8F0E0808184608083EFE6F0E032
S11301A0808186608083E0EBF0E08081816A8083D7
S11301B0E1EBF0E0808186608083E0E7F0E080811D
S11301C08260808308951F920F920FB60F921124BC
S11301D00F900FBE0F901F9018951F920F920FB69D
S11301E00F9211240F900FBE0F901F9018950E942C
S11301F0C2000E9448000E94BE0008950E94F700B9
S11302000F2EFAE8EF2EF12CF02D03EB10E0C8E8E6
S1130210D0E083E091E00E948000E3E0F1E04281DD
S1130220538180819181480F591F56954795569562
S113023047955695479540930201268137818481DD
S11302409581280F391F80859185280F391F369590
S1130250279536952795ABEABAEA0E944B01969505
S11302608795809301016485758522853385260FE2
S1130270371F3695279536952795369527952093DC
S113028000013327F70131832083F8014083992744
S113029099838883BECFA29FB001B39FC001A39F5F
S11302A0700D811D1124911DB29F700D811D1124AB
S10B02B0911D0895F894FFCF9D
S9030000FC
