S0110000417564696F324C65642E73726563DA
S11300000C943C000C94F6000C940D010C945900D3
S11300100C9459000C9459000C9459000C945900F8
S11300200C9459000C9459000C9459000C945900E8
S11300300C9459000C9459000C9459000C945900D8
S11300400C9459000C9459000C9459000C945900C8
S11300500C9459000C9459000C9459000C945900B8
S11300600C9459000C9459006201690176018301D2
S113007090019D01AA01B70111241FBECFEFD8E062
S1130080DEBFCDBF11E0A0E0B1E0EAEFF3E002C0D3
S113009005900D92A230B107D9F721E0A2E0B1E0BA
S11300A001C01D92AF30B207E1F70E941E010C940B
S11300B0FB010C940000ECE7F0E080E48083808195
S11300C08083808180628083808180648083EAE78A
S11300D0F0E084E080838081806880838081806414
S11300E08083808186FDFDCF579A08955F9AEAE761
S11300F0F0E0808180648083808186FDFDCF5F98FD
S11301008091790008950F931F93CF93DF935D98A7
S11301105E985E9AEFE8F1E03197F1F700C00000D5
S11301205D9AE7ECF0E03197F1F700C000005D98CC
S1130130E7ECF0E03197F1F700C000005E985D9ABB
S1130140E7ECF0E03197F1F700C00000EC018C011E
S1130150095F1F4F5D98F0EAFA95F1F70E94760067
S113016089938AE18A95F1F700C05D9AE7ECF0E0A3
S11301703197F1F700C00000C017D10759F7DF919C
S1130180CF911F910F9108958AB180668AB908951D
S11301908FE384B9E0E8F0E08081816A8083E1E85C
S11301A0F0E0808184608083EFE6F0E08081866007
S11301B08083E0EBF0E08081816A8083E1EBF0E012
S11301C0808186608083E0E7F0E0808182608083C4
S11301D0089590E090938B0080938A004093B3003D
S11301E070E0709389006093880008951F920F92C5
S11301F00FB60F9211248F93809100018F5F80932B
S1130200000180910001883010F0109200018F915C
S11302100F900FBE0F901F9018951F920F920FB65C
S11302200F9211240F900FBE0F901F9018950E94EB
S1130230C4000E945B000E94C80008950E94170138
S11302407894C3E0D0E012E387E091E00E94830059
S1130250E7E0F1E02081209304013181828190E084
S1130260830F911D3381830F911DBE010E94CD0127
S1130270362F60930E014481858190E0840F911D97
S11302804681840F911DBE010E94CD01862F60938B
S113029002012E3110F4109204013E3110F4109238
S11302A00E018E3110F410920201E09100018E2FA4
S11302B090E08830910508F061C0FC01EC5CFF4FD0
S11302C00C94E101109306011092050110930301AF
S11302D05BC0809104018093060180910E0180939C
S11302E0050180910201809303014EC080910E01AB
S11302F0809306018091020180930501809104019D
S11303008093030141C08091020180930601809192
S113031004018093050180910E018093030134C090
S1130320809104018093060180910201809305016C
S113033080910E018093030127C080910E01809368
S1130340060180910401809305018091020180934C
S113035003011AC0809102018093060180910E016D
S11303608093050180910401809303010DC01092D4
S11303700601109205011092030106C010920601B5
S1130380109205011092030140910301609105014F
S1130390809106010E94E90057CF97FB072E16F4BF
S11303A0009407D077FD09D00E94E70107FC05D02F
S11303B03EF4909581959F4F0895709561957F4F78
S11303C00895EE0FFF1F0590F491E02D0994AA1BE8
S11303D0BB1B51E107C0AA1FBB1FA617B70710F02C
S11303E0A61BB70B881F991F5A95A9F7809590955E
S10D03F0BC01CD010895F894FFCF7D
S10503FA0300FA
S9030000FC
