S0110000417564696F324C65642E73726563DA
S11300000C9434000C94C7000C94D1000C9446005A
S11300100C9446000C9446000C9446000C94460044
S11300200C9446000C9446000C9446000C94460034
S11300300C9446000C9446000C9446000C94460024
S11300400C9446000C9446000C9446000C94460014
S11300500C9446000C9446000C9446000C94460004
S11300600C9446000C94460011241FBECFEFD8E038
S1130070DEBFCDBF21E0A0E0B1E001C01D92AA30F7
S1130080B207E1F70E94E2000C9450010C940000C6
S113009017B88FE388B9ECE7F0E08081806680834D
S11300A0EEE7F0E0808181608083EAE7F0E0808120
S11300B080688083808180648083808186FDFDCF19
S11300C00895EAE7F0E0808180648083808186FD82
S11300D0FDCF8091790090E008950F931F93CF9303
S11300E0DF935D9A5E9AEFE3F1E03197F1F700C098
S11300F000002BB12F6D2BB9F0EAFA95F1F72BB173
S11301002F6B2BB95D9A25ED2A95F1F70000EC01D0
S11301108C01095F1F4F9BB19F6D9BB985ED8A953B
S1130120F1F700000E94610089935D9AE5EDEA957C
S1130130F1F70000C017D10771F7DF91CF911F913C
S11301400F9108958AB180668AB908958FE384B9BE
S1130150E0E8F0E08081816A8083E1E8F0E080817A
S113016084608083EFE6F0E0808186608083E0EB4A
S1130170F0E08081816A8083E1EBF0E08081866039
S11301808083E0E7F0E080818260808308951F929D
S11301900F920FB60F9211240F900FBE0F901F9065
S11301A018951F920F920FB60F9211240F900FBE45
S11301B00F901F9018950E94A6000E9448000E946C
S11301C0A20008950E94DB0078940F2EF3E0CF2E56
S11301D0D12CF02D0F2EFAE8EF2EF12CF02D03EB9D
S11301E010E0C8E8D0E083E091E00E946D00E3E015
S11301F0F1E02081818190E0820F911D9595879592
S1130200809302012281838190E0820F911D2481D9
S1130210820F911DB6010E9428016093010125817E
S1130220868190E0820F911D9595879580930001BA
S113023080910101909102012091000130E0F701C9
S113024031832083F801908390E099838883CBCF16
S113025097FB072E16F4009407D077FD09D00E946F
S11302603C0107FC05D03EF4909581959F4F08957D
S1130270709561957F4F0895AA1BBB1B51E107C080
S1130280AA1FBB1FA617B70710F0A61BB70B881F22
S1130290991F5A95A9F780959095BC01CD010895B1
S10702A0F894FFCFFC
S9030000FC
