S0110000417564696F324C65642E73726563DA
S11300000C9434000C94C9000C94D3000C94460056
S11300100C9446000C9446000C9446000C94460044
S11300200C9446000C9446000C9446000C94460034
S11300300C9446000C9446000C9446000C94460024
S11300400C9446000C9446000C9446000C94460014
S11300500C9446000C9446000C9446000C94460004
S11300600C9446000C94460011241FBECFEFD8E038
S1130070DEBFCDBF21E0A0E0B1E001C01D92A131FF
S1130080B207E1F70E94E4000C9440010C940000D4
S1130090ECE7F0E080E4808380818083808180626B
S11300A08083EAE7F0E084E0808380818068808355
S11300B00895ECE7F0E08081807E8083EAE7F0E059
S11300C0808180648083808184FFFDCF809179006A
S11300D0EAE7F0E090819061908390E008950F93B7
S11300E01F93CF93DF935D9A5E9AEFE3F1E031972C
S11300F0F1F700C000002BB12F6D2BB9F0EAFA958F
S1130100F1F72BB12F6B2BB95D9A25ED2A95F1F7F9
S11301100000EC018C01095F1F4F9BB19F6D9BB9DF
S113012085ED8A95F1F700000E94590089935D9A44
S1130130E5EDEA95F1F70000C017D10771F7DF91FB
S1130140CF911F910F9108958AB180668AB908955D
S11301508FE384B9E0E8F0E08081816A8083E1E89C
S1130160F0E0808184608083EFE6F0E08081866047
S11301708083E0EBF0E08081816A8083E1EBF0E052
S1130180808186608083E0E7F0E080818260808304
S113019008951F920F920FB60F9211240F900FBE65
S11301A00F901F9018951F920F920FB60F92112463
S11301B00F900FBE0F901F9018950E94A8000E94E8
S11301C048000E94A40008950E94DD000F2EFAE862
S11301D0EF2EF12CF02D03EB10E0C8E8D0E083E023
S11301E091E00E946F00E3E0F1E04281538180815D
S11301F09181480F591F56954795569547955695A1
S11302004795409302012681378184819581280F87
S1130210391F80859185280F391F36952795369586
S11302202795ABEABAEA0E943101969587958093A7
S113023001016485758522853385260F371F369520
S113024027953695279536952795209300013327D2
S1130250F70131832083F8014083992799838883A8
S1130260BECFA29FB001B39FC001A39F700D811D9B
S11302701124911DB29F700D811D1124911D0895AB
S1070280F894FFCF1C
S9030000FC
