S0110000417564696F324C65642E73726563DA
S11300000C9434000C94E3000C94ED000C94460022
S11300100C9446000C9446000C9446000C94460044
S11300200C9446000C9446000C9446000C94460034
S11300300C9446000C9446000C9446000C94460024
S11300400C9446000C9446000C9446000C94460014
S11300500C9446000C9446000C9446000C94460004
S11300600C9446000C94460011241FBECFEFD8E038
S1130070DEBFCDBF21E0A0E0B1E001C01D92AA30F7
S1130080B207E1F70E94FE000C9456010C940000A4
S1130090ECE7F0E080E4808380818083808180626B
S11300A08083808180648083EAE7F0E084E0808359
S11300B0808180688083808180648083808186FDE4
S11300C0FDCF579A08955F9AEAE7F0E08081806453
S11300D08083808186FDFDCF5F98809179000895AB
S11300E00F931F93CF93DF935D985E985E9AEFE82A
S11300F0F1E03197F1F700C000005D9AE7ECF0E021
S11301003197F1F700C000005D98E7ECF0E031971B
S1130110F1F700C000005E985D9AE7ECF0E03197DB
S1130120F1F700C00000EC018C01095F1F4F5D98DE
S1130130F0EAFA95F1F70E94630089938AE18A95BF
S1130140F1F700C05D9AE7ECF0E03197F1F700C0F9
S11301500000C017D10759F7DF91CF911F910F917C
S113016008958AB180668AB908958FE384B9E0E876
S1130170F0E08081816A8083E1E8F0E0808184603E
S11301808083EFE6F0E0808186608083E0EBF0E03E
S11301908081816A8083E1EBF0E0808186608083E6
S11301A0E0E7F0E0808182608083089590E090939E
S11301B08B0080938A006093B30050E050938900D1
S11301C04093880008951F920F920FB60F92112446
S11301D00F900FBE0F901F9018951F920F920FB69D
S11301E00F9211240F900FBE0F901F9018950E942C
S11301F0B1000E9448000E94B50008950E94F700D3
S1130200C3E0D0E083E091E00E947000E3E0F1E01D
S11302108081218130E0280F311D35952795209369
S113022002013281838190E0830F911D3481830F19
S1130230911DBE010E942E01462F6093010135815C
S1130240868190E0830F911DBE010E942E01862FAE
S113025060930001622F0E94D600D4CF97FB072E33
S113026016F4009407D077FD09D00E94420107FCE0
S113027005D03EF4909581959F4F089570956195B2
S11302807F4F0895AA1BBB1B51E107C0AA1FBB1FC8
S1130290A617B70710F0A61BB70B881F991F5A950E
S11302A0A9F780959095BC01CD010895F894FFCFEE
S9030000FC
